:020000040800F2
:1000000000500020412B0008CD280008D52800080A
:10001000DD280008E5280008ED28000800000000A1
:10002000000000000000000000000000F5280008AB
:1000300001290008000000000D2900081929000806
:10004000892B0008892B0008892B0008892B0008C0
:10005000892B0008892B0008892B0008892B0008B0
:10006000892B0008892B0008892B0008892B0008A0
:100070002529000839290008892B0008892B000848
:100080004D29000861290008892B0008892B0008E8
:10009000892B0008892B0008892B0008892B000870
:1000A000892B0008892B0008892B0008892B000860
:1000B00075290008892B0008892B0008892B000866
:1000C000892B0008892B0008892B0008892B000840
:1000D000892B0008892B0008892900089D29000820
:1000E000892B0008892B0008892B000800000000DC
:1000F0000000000000000000000000000000000000
:0C01000000000000000000005FF808F1A3
:1001100010B5054C237833B9044B13B10448AFF341
:1001200000800123237010BDD401002000000000D6
:10013000FCA6000808B5034B1BB103490348AFF305
:10014000008008BD00000000D8010020FCA60008C7
:10015000034613F8012B002AFBD1181A0138704707
:1001600081F0004102E000BF83F0004330B54FEA68
:1001700041044FEA430594EA050F08BF90EA020FD5
:100180001FBF54EA000C55EA020C7FEA645C7FEA68
:10019000655C00F0E2804FEA5454D4EB5555B8BF8B
:1001A0006D420CDD2C4480EA020281EA030382EAFC
:1001B000000083EA010180EA020281EA0303362D8E
:1001C00088BF30BD11F0004F4FEA01314FF4801C61
:1001D0004CEA113102D0404261EB410113F0004F73
:1001E0004FEA03334CEA133302D0524263EB43032A
:1001F00094EA050F00F0A780A4F10104D5F1200EC8
:100200000DDB02FA0EFC22FA05F2801841F1000122
:1002100003FA0EF2801843FA05F359410EE0A5F1F6
:1002200020050EF1200E012A03FA0EFC28BF4CF027
:10023000020C43FA05F3C01851EBE37101F00045DD
:1002400007D54FF0000EDCF1000C7EEB00006EEBEA
:100250000101B1F5801F1BD3B1F5001F0CD3490874
:100260005FEA30004FEA3C0C04F101044FEA4452CB
:1002700012F5800F80F09A80BCF1004F08BF5FEA52
:10028000500C50F1000041EB045141EA050130BD32
:100290005FEA4C0C404141EB0101013C28BFB1F544
:1002A000801FE9D291F0000F04BF01460020B1FA8F
:1002B00081F308BF2033A3F10B03B3F120020CDA62
:1002C0000C3208DD02F1140CC2F10C0201FA0CF040
:1002D00021FA02F10CE002F11402D8BFC2F1200CA5
:1002E00001FA02F120FA0CFCDCBF41EA0C0190405B
:1002F000E41AA2BF01EB0451294330BD6FEA0404A4
:100300001F3C1CDA0C340EDC04F11404C4F120028E
:1003100020FA04F001FA02F340EA030021FA04F3A0
:1003200045EA030130BDC4F10C04C4F1200220FAF7
:1003300002F001FA04F340EA0300294630BD21FA35
:1003400004F0294630BD94F0000F83F4801306BFFB
:1003500081F480110134013D4EE77FEA645C18BFEF
:100360007FEA655C29D094EA050F08BF90EA020F86
:1003700005D054EA000C04BF1946104630BD91EA7E
:10038000030F1EBF0021002030BD5FEA545C05D181
:100390004000494128BF41F0004130BD14F58004C0
:1003A0003CBF01F5801130BD01F0004545F0FE4134
:1003B00041F470014FF0000030BD7FEA645C1ABF69
:1003C000194610467FEA655C1CBF0B46024650EAA0
:1003D000013406BF52EA033591EA030F41F40021CC
:1003E00030BD00BF90F0000F04BF0021704730B552
:1003F0004FF4806404F132044FF000054FF0000127
:1004000050E700BF90F0000F04BF0021704730B5E7
:100410004FF4806404F1320410F0004548BF4042BC
:100420004FF000013EE700BF42004FEAE2014FEA11
:1004300031014FEA02701FBF12F07F4393F07F4FEC
:1004400081F06051704732F07F4208BF704793F0EF
:100450007F4F04BF41F40021704730B54FF4607402
:1004600001F0004521F000411CE700BF50EA010205
:1004700008BF704730B54FF000050AE050EA0102AE
:1004800008BF704730B511F0004502D5404261EB1E
:1004900041014FF4806404F132045FEA915C3FF45F
:1004A000D8AE4FF003025FEADC0C18BF03325FEAFC
:1004B000DC0C18BF033202EBDC02C2F1200300FAAD
:1004C00003FC20FA02F001FA03FE40EA0E0021FAD2
:1004D00002F11444BDE600BF70B54FF0FF0C4CF4C0
:1004E000E06C1CEA11541DBF1CEA135594EA0C0F72
:1004F00095EA0C0F00F0DEF82C4481EA030621EAAD
:100500004C5123EA4C5350EA013518BF52EA0335E7
:1005100041F4801143F4801338D0A0FB02CE4FF099
:100520000005E1FB02E506F00042E0FB03E54FF0C9
:100530000006E1FB03569CF0000F18BF4EF0010EC1
:10054000A4F1FF04B6F5007F64F5407404D25FEABD
:100550004E0E6D4146EB060642EAC62141EA555170
:100560004FEAC52040EA5E504FEACE2EB4F1FD0CB2
:1005700088BFBCF5E06F1ED8BEF1004F08BF5FEA30
:10058000500E50F1000041EB045170BD06F00046E2
:1005900046EA010140EA020081EA0301B4EB5C048F
:1005A000C2BFD4EB0C0541EA045170BD41F4801187
:1005B0004FF0000E013C00F3AB8014F1360FDEBFAC
:1005C000002001F0004170BDC4F10004203C35DA88
:1005D0000C341BDC04F11404C4F1200500FA05F30B
:1005E00020FA04F001FA05F240EA020001F00042AC
:1005F00021F0004110EBD37021FA04F642EB060122
:100600005EEA430E08BF20EAD37070BDC4F10C044B
:10061000C4F1200500FA04F320FA05F001FA04F20F
:1006200040EA020001F0004110EBD37041F10001FB
:100630005EEA430E08BF20EAD37070BDC4F1200506
:1006400000FA05F24EEA020E20FA04F301FA05F26E
:1006500043EA020321FA04F001F0004121FA04F216
:1006600020EA020000EBD3705EEA430E08BF20EAE6
:10067000D37070BD94F0000F0FD101F00046400020
:1006800041EB010111F4801F08BF013CF7D041EAA2
:10069000060195F0000F18BF704703F000465200A6
:1006A00043EB030313F4801F08BF013DF7D043EA77
:1006B0000603704794EA0C0F0CEA135518BF95EA2D
:1006C0000C0F0CD050EA410618BF52EA4306D1D1B4
:1006D00081EA030101F000414FF0000070BD50EAD3
:1006E000410606BF1046194652EA430619D094EA5D
:1006F0000C0F02D150EA013613D195EA0C0F05D147
:1007000052EA03361CBF104619460AD181EA03019A
:1007100001F0004141F0FE4141F470014FF0000052
:1007200070BD41F0FE4141F4780170BD70B54FF0ED
:10073000FF0C4CF4E06C1CEA11541DBF1CEA13556D
:1007400094EA0C0F95EA0C0F00F0A7F8A4EB05044F
:1007500081EA030E52EA03354FEA013100F0888046
:100760004FEA03334FF0805545EA131343EA12630F
:100770004FEA022245EA111545EA10654FEA0026C4
:100780000EF000419D4208BF964244F1FD0404F57D
:10079000407402D25B084FEA3202B61A65EB0305D9
:1007A0005B084FEA32024FF480104FF4002CB6EB96
:1007B000020E75EB030E22BFB61A754640EA0C0016
:1007C0005B084FEA3202B6EB020E75EB030E22BF56
:1007D000B61A754640EA5C005B084FEA3202B6EB97
:1007E000020E75EB030E22BFB61A754640EA9C0056
:1007F0005B084FEA3202B6EB020E75EB030E22BF26
:10080000B61A754640EADC0055EA060E18D04FEAE3
:10081000051545EA16754FEA06164FEAC30343EA83
:1008200052734FEAC2025FEA1C1CC0D111F4801F50
:100830000BD141EA00014FF000004FF0004CB6E749
:1008400011F4801F04BF01430020B4F1FD0C88BFE8
:10085000BCF5E06F3FF6AFAEB5EB030C04BFB6EBF3
:10086000020C5FEA500C50F1000041EB045170BDE6
:100870000EF0004E4EEA113114EB5C04C2BFD4EB13
:100880000C0541EA045170BD41F480114FF0000E97
:10089000013C90E645EA060E8DE60CEA135594EA13
:1008A0000C0F08BF95EA0C0F3FF43BAF94EA0C0F16
:1008B0000AD150EA01347FF434AF95EA0C0F7FF48B
:1008C00025AF104619462CE795EA0C0F06D152EADF
:1008D00003353FF4FDAE1046194622E750EA4106C3
:1008E00018BF52EA43067FF4C5AE50EA41047FF4D4
:1008F0000DAF52EA43057FF4EBAE12E74FF0FF3C39
:1009000006E000BF4FF0010C02E000BF4FF0010C09
:100910004DF804CD4FEA410C7FEA6C5C4FEA430C82
:1009200018BF7FEA6C5C1BD001B050EA410C0CBFD1
:1009300052EA430C91EA030F02BF90EA020F002033
:10094000704710F1000F91EA030F58BF994208BF9A
:1009500090422CBFD8176FEAE37040F00100704757
:100960004FEA410C7FEA6C5C02D150EA013C07D1AE
:100970004FEA430C7FEA6C5CD6D152EA033CD3D0F9
:100980005DF8040B704700BF8446104662468C46F3
:100990001946634600E000BF01B5FFF7B7FF002826
:1009A00048BF10F1000F01BD4DF808EDFFF7F4FF4F
:1009B0000CBF012000205DF808FB00BF4DF808EDDA
:1009C000FFF7EAFF34BF012000205DF808FB00BFFD
:1009D0004DF808EDFFF7E0FF94BF012000205DF81F
:1009E00008FB00BF4DF808EDFFF7CEFF94BF0120D4
:1009F00000205DF808FB00BF4DF808EDFFF7C4FFCD
:100A000034BF012000205DF808FB00BF4FEA410C15
:100A10007FEA6C5C02D150EA013C0AD14FEA430CF8
:100A20007FEA6C5C02D152EA033C02D14FF0000035
:100A300070474FF0010070474FEA410212F5001273
:100A400015D211D56FF47873B3EB625212D94FEA15
:100A5000C12343F0004343EA505311F0004F23FAFF
:100A600002F018BF404270474FF00000704750EA54
:100A7000013005D111F0004008BF6FF00040704711
:100A80004FF00000704700BF4A0011D212F500126B
:100A900011D20DD56FF47873B3EB62520ED44FEAD6
:100AA000C12343F0004343EA505323FA02F0704756
:100AB0004FF00000704750EA013002D14FF0FF3094
:100AC00070474FF0000070474FEA4102B2F1E04337
:100AD00024BFB3F5001CDCF1FE5C0DD901F0004C25
:100AE0004FEAC0024CEA5070B2F1004F40EB830075
:100AF00008BF20F00100704711F0804F21D113F1A1
:100B00003872BCBF01F00040704741F480114FEAD9
:100B10005252C2F11802C2F1200C10FA0CF320FA62
:100B200002F018BF40F001004FEAC1234FEAD3237F
:100B300003FA0CFC40EA0C0023FA02F34FEA4303E9
:100B4000CCE77FEA625307D150EA01331EBF4FF072
:100B5000FE4040F44000704701F0004040F0FE408D
:100B600040F40000704700BF80F0004002E000BF8A
:100B700081F0004142001FBF5FEA410392EA030F88
:100B80007FEA226C7FEA236C6AD04FEA1262D2EBD2
:100B90001363C1BFD218414048404140B8BF5B42D7
:100BA000192B88BF704710F0004F40F4000020F070
:100BB0007F4018BF404211F0004F41F4000121F086
:100BC0007F4118BF494292EA030F3FD0A2F10102D0
:100BD00041FA03FC10EB0C00C3F1200301FA03F10E
:100BE00000F0004302D5494260EB4000B0F5000F31
:100BF00013D3B0F1807F06D340084FEA310102F1F0
:100C00000102FE2A51D2B1F1004F40EBC25008BFA1
:100C100020F0010040EA03007047490040EB00006B
:100C2000013A28BFB0F5000FEDD2B0FA80FCACF16C
:100C3000080CB2EB0C0200FA0CF0AABF00EBC25099
:100C400052421843BCBFD0401843704792F0000F87
:100C500081F4000106BF80F400000132013BB5E7DA
:100C60004FEA41037FEA226C18BF7FEA236C21D050
:100C700092EA030F04D092F0000F08BF08467047B5
:100C800090EA010F1CBF0020704712F07F4F04D183
:100C9000400028BF40F00040704712F100723CBF96
:100CA00000F50000704700F0004343F0FE4040F4C0
:100CB000000070477FEA226216BF08467FEA23637E
:100CC0000146420206BF5FEA412390EA010F40F469
:100CD000800070474FF0000304E000BF10F00043B5
:100CE00048BF40425FEA000C08BF704743F096439C
:100CF00001464FF000001CE050EA010208BF7047B7
:100D00004FF000030AE000BF50EA010208BF70473D
:100D100011F0004302D5404261EB41015FEA010C52
:100D200002BF84460146002043F0B64308BFA3F14A
:100D30008053A3F50003BCFA8CF2083AA3EBC2532C
:100D400010DB01FA02FC634400FA02FCC2F120024B
:100D5000BCF1004F20FA02F243EB020008BF20F082
:100D60000100704702F1200201FA02FCC2F12002E8
:100D700050EA4C0021FA02F243EB020008BF20EADD
:100D8000DC7070474FF0FF0C1CEAD0521EBF1CEA0B
:100D9000D15392EA0C0F93EA0C0F6FD01A4480EAF9
:100DA000010C400218BF5FEA41211ED04FF00063E2
:100DB00043EA501043EA5111A0FB01310CF000400E
:100DC000B1F5000F3EBF490041EAD3715B0040EA34
:100DD000010062F17F02FD2A1DD8B3F1004F40EB04
:100DE000C25008BF20F00100704790F0000F0CF0D7
:100DF000004C08BF49024CEA502040EA51207F3A9B
:100E0000C2BFD2F1FF0340EAC250704740F4000075
:100E10004FF00003013A5DDC12F1190FDCBF00F066
:100E200000407047C2F10002410021FA02F1C2F114
:100E3000200200FA02FC5FEA310040F1000053EAB0
:100E40004C0308BF20EADC70704792F0000F00F0FE
:100E5000004C02BF400010F4000F013AF9D040EA04
:100E60000C0093F0000F01F0004C02BF490011F498
:100E7000000F013BF9D041EA0C018FE70CEAD15396
:100E800092EA0C0F18BF93EA0C0F0AD030F0004C16
:100E900018BF31F0004CD8D180EA010000F00040CA
:100EA000704790F0000F17BF90F0004F084691F088
:100EB000000F91F0004F14D092EA0C0F01D14202C2
:100EC0000FD193EA0C0F03D14B0218BF084608D18B
:100ED00080EA010000F0004040F0FE4040F40000D5
:100EE000704740F0FE4040F4400070474FF0FF0C68
:100EF0001CEAD0521EBF1CEAD15392EA0C0F93EAAF
:100F00000C0F69D0A2EB030280EA010C49024FEA00
:100F1000402037D04FF0805343EA111143EA1013B9
:100F20000CF000408B4238BF5B0042F17D024FF471
:100F3000000C8B4224BF5B1A40EA0C00B3EB510F4C
:100F400024BFA3EB510340EA5C00B3EB910F24BF35
:100F5000A3EB910340EA9C00B3EBD10F24BFA3EBBA
:100F6000D10340EADC001B0118BF5FEA1C1CE0D182
:100F7000FD2A3FF650AF8B4240EBC25008BF20F035
:100F8000010070470CF0004C4CEA50207F32C2BF89
:100F9000D2F1FF0340EAC250704740F400004FF026
:100FA0000003013A37E792F0000F00F0004C02BF57
:100FB000400010F4000F013AF9D040EA0C0093F021
:100FC000000F01F0004C02BF490011F4000F013B7B
:100FD000F9D041EA0C0195E70CEAD15392EA0C0FE3
:100FE00008D142027FF47DAF93EA0C0F7FF470AF1B
:100FF000084676E793EA0C0F04D14B023FF44CAF5E
:1010000008466EE730F0004C18BF31F0004CCAD1F2
:1010100030F000427FF45CAF31F000437FF43CAF2E
:101020005FE700BF4FF0FF3C06E000BF4FF0010C50
:1010300002E000BF4FF0010C4DF804CD4FEA400232
:101040004FEA41037FEA226C18BF7FEA236C11D07C
:1010500001B052EA530C18BF90EA010F58BFB2EB2F
:10106000030088BFC81738BF6FEAE17018BF40F0AF
:10107000010070477FEA226C02D15FEA402C05D163
:101080007FEA236CE4D15FEA412CE1D05DF8040BE8
:10109000704700BF844608466146FFE70FB5FFF77B
:1010A000C9FF002848BF10F1000F0FBD4DF808ED33
:1010B000FFF7F4FF0CBF012000205DF808FB00BF24
:1010C0004DF808EDFFF7EAFF34BF012000205DF87E
:1010D00008FB00BF4DF808EDFFF7E0FF94BF0120CB
:1010E00000205DF808FB00BF4DF808EDFFF7D2FFC8
:1010F00094BF012000205DF808FB00BF4DF808ED0B
:10110000FFF7C8FF34BF012000205DF808FB00BFD7
:1011100042000ED2B2F1FE4F0BD34FF09E03B3EB61
:10112000126209D44FEA002343F0004323FA02F08D
:1011300070474FF00000704712F1610F01D1420279
:1011400002D14FF0FF3070474FF00000704700BFF2
:1011500038B50022002304460D46FFF72FFC28B9BE
:1011600020462946BDE8384000F00AB8204605F17F
:10117000004100F005F8404261EB410138BD00BF7D
:10118000D0B500220B4B06460F46FFF7A5F9FFF737
:101190007BFC0446FFF726F90022074BFFF79CF97A
:1011A00002460B4630463946FEF7DEFFFFF76CFC81
:1011B0002146D0BD0000F03D0000F04100000000DD
:1011C00090B585B000AFF860B9601346FB71FB685D
:1011D0001B685B6A1A46BB689A6097F90730184625
:1011E000FFF77CFD0446BB689A68BB685B68D31A4E
:1011F0001846FFF773FD034619462046FFF7C2FD68
:1012000003461A46BB68DA60BB68DB683A49184691
:10121000FFF756FF0346002B0BD0BB68DB684FF08F
:101220008F411846FFF7A6FC03461A46BB68DA60F2
:1012300013E0BB68DB6831491846FFF75FFF0346E0
:10124000002B0AD0BB68DB684FF08F411846FFF7D0
:101250008FFC03461A46BB68DA60BB68DB68284926
:101260001846FFF78FFD03461846FFF7DDF81EA36B
:10127000D3E90023FFF75AFA02460B4610461946F7
:10128000FFF722FC0246BB681A60BB68DB681D4999
:101290001846FFF72BFE034619461846FFF76AFC6F
:1012A00003461846FFF7C0F84FF00002164BFFF751
:1012B00013F902460B46104619460DA3D3E9002345
:1012C000FFF70AF902460B4610461946FFF7FCFBEA
:1012D0000246BB689A61BB689A68BB685A6000BFE7
:1012E0001437BD4690BD00BF3333333333B36D4045
:1012F00050455254FB21094000606AC700606A47AC
:101300000000704200A039460040404080B584B0E3
:1013100000AFF860B9601346FB71FB79002B03D175
:10132000FB68BA685A6107E0FB79012B04D1BB68FE
:1013300083F00042FB685A61FB685B694FF0000173
:101340001846FFF7DBFE0346002B28D0FB681B691D
:101350004FF000011846FFF7C7FE0346002B1ED0D2
:10136000FB685B696D491846FFF7C0FD03466C4991
:101370001846FFF707FD03464FF07E511846FFF76A
:10138000F7FB03461846FFF7C3FE03469AB2654BC8
:101390001B685A63634B1B6800229A63B6E0FB68C4
:1013A0005B694FF000011846FFF78AFE0346002BE9
:1013B0002ED0FB681B694FF000011846FFF79EFE18
:1013C0000346002B24D0574B1B6800225A63554B11
:1013D0001B6800229A63FB685B6983F000434F49F6
:1013E0001846FFF783FD03464D491846FFF7CAFC30
:1013F00003464FF07E511846FFF7BAFB03461846E6
:10140000FFF786FE03469AB2464B1B689A637DE05F
:10141000FB685B694FF000011846FFF76FFE03465B
:10142000002B2CD0FB681B694FF000011846FFF71A
:1014300047FE0346002B22D03A4B1B6800225A631A
:10144000384B1B6800229A63FB685B693349184676
:10145000FFF74CFD034632491846FFF793FC03465D
:101460004FF07E511846FFF783FB03461846FFF7FF
:101470004FFE03469AB22B4B1B685A6346E0FB684B
:101480005B694FF000011846FFF71AFE0346002B78
:101490002AD0FB681B694FF000011846FFF71AFEBF
:1014A0000346002B20D01F4B1B6800225A63FB68A9
:1014B0005B6983F0004319491846FFF717FD03469F
:1014C00017491846FFF75EFC03464FF07E51184659
:1014D000FFF74EFB03461846FFF71AFE03469AB283
:1014E000104B1B689A6311E0FB685B694FF00001C9
:1014F0001846FFF7DBFD0346002B07D0094B1B689E
:1015000000225A63074B1B6800229A63FB685A69E2
:10151000FB681A6100BF1037BD4680BD0000144251
:1015200000007A440003002080B584B000AFF8606A
:10153000B9601346FB71FB79002B03D1FB68BA68D5
:101540005A6107E0FB79012B04D1BB6883F00042AC
:10155000FB685A61FB685B694FF000011846FFF7B2
:10156000CDFD0346002B28D0FB681B694FF000011E
:101570001846FFF7B9FD0346002B1ED0FB685B69D8
:101580006D491846FFF7B2FC03466C491846FFF751
:10159000F9FB03464FF07E511846FFF7E9FA034680
:1015A0001846FFF7B5FD03469AB2654B1B68DA6330
:1015B000634B1B6800221A64B6E0FB685B694FF05E
:1015C00000011846FFF77CFD0346002B2ED0FB6878
:1015D0001B694FF000011846FFF790FD0346002BF2
:1015E00024D0574B1B680022DA63554B1B6800223E
:1015F0001A64FB685B6983F000434F491846FFF7A4
:1016000075FC03464D491846FFF7BCFB03464FF0F7
:101610007E511846FFF7ACFA03461846FFF778FDEF
:1016200003469AB2464B1B681A647DE0FB685B690F
:101630004FF000011846FFF761FD0346002B2CD048
:10164000FB681B694FF000011846FFF739FD0346A0
:10165000002B22D03A4B1B680022DA63384B1B6800
:1016600000221A64FB685B6933491846FFF73EFCA9
:10167000034632491846FFF785FB03464FF07E517B
:101680001846FFF775FA03461846FFF741FD034673
:101690009AB22B4B1B68DA6346E0FB685B694FF03C
:1016A00000011846FFF70CFD0346002B2AD0FB680B
:1016B0001B694FF000011846FFF70CFD0346002B95
:1016C00020D01F4B1B680022DA63FB685B6983F044
:1016D000004319491846FFF709FC03461749184605
:1016E000FFF750FB03464FF07E511846FFF740FAD4
:1016F00003461846FFF70CFD03469AB2104B1B68D1
:101700001A6411E0FB685B694FF000011846FFF7AF
:10171000CDFC0346002B07D0094B1B680022DA637F
:10172000074B1B6800221A64FB685A69FB681A6140
:1017300000BF1037BD4680BD0000144200007A444F
:101740000003002080B584B000AFF860B9607A6013
:10175000FB703B7E002B0DD10122B968F868FFF7C2
:101760002FFDBB681968BB68DB691A46786800F012
:1017700071F810E03B7E012B0DD14FF0FF32B968BC
:10178000F868FFF71DFDBB681968BB68DB691A467E
:10179000786800F05FF8FB78002B07D17B681B6C42
:1017A0003A7E1946B868FFF7B1FD09E0FB78012BD6
:1017B00006D17B681B6C3A7E1946B868FFF7B4FE09
:1017C00000BF1037BD4680BD80B485B000AFF86063
:1017D000B9607A603B60FB68BA681A60FB687A6837
:1017E0005A60FB683A689A60FB68BA69DA60FB681D
:1017F000FA691A61FB684FF000025A61FB684FF00A
:1018000000029A61FB684FF00002DA61FB684FF05A
:1018100000021A62FB684FF000025A62FB684FF048
:1018200000029A62FB684FF000021A63FB684FF0F7
:101830000002DA62FB684FF000025A63FB683A6A02
:101840009A63FB684FF000021A6400BF1437BD466C
:1018500080BC7047B0B584B000AFF860B9607A6002
:10186000B9687868FFF784F903461A46FB685A613D
:10187000FB681A6CFB68DB6B19461046FFF716FC19
:101880000346002B04D1FB68012283F8442003E0C7
:10189000FB68002283F84420FB685A69FB68DB6B15
:1018A00019461046FFF76EFA03464FF0000118463E
:1018B000FFF71AFC0346002B04D0FB68012283F8D3
:1018C000452003E0FB68002283F84520FB6893F87D
:1018D0004420FB6893F845301340DBB2002B08D15D
:1018E000FB685A69FB68DA61FB689A69FB681A62EF
:1018F00007E0FB684FF000021A62FB684FF000023D
:10190000DA61FB681A68FB685B6919461046FFF7E5
:1019100039FA03461A46FB685A62FB685A68FB6844
:101920001B6919461046FFF72DFA03464FF0804118
:101930001846FFF7DBFA03461C46FB68DA69FB68CA
:101940001B6A19461046FFF715F90346194620464B
:10195000FFF718FA03461A46FB68DB6A1946104679
:10196000FFF708F903461A46FB689A62FB689B6812
:1019700019461846FFF7FEF803461C46FB68DB686D
:1019800019461846FFF7F6F803461A46FB681B6926
:1019900019461046FFF7EEF8034619462046FFF7B2
:1019A000A5FA03461C46FB685A69FB689B69194601
:1019B0001046FFF7DDF8034619462046FFF7E2F927
:1019C00003461C46FB68DB6819461846FFF7D2F849
:1019D00003461A46FB681B6919461046FFF7C8F80C
:1019E00003461D46FB68DB6819461846FFF7C2F838
:1019F00003461A46FB681B6919461046FFF7BAF8FA
:101A0000034619462846FFF771FA03461A46FB6853
:101A10005B6B19461046FFF7B5F903461946204699
:101A2000FFF7A8F803461A46FB681A63FB685A6971
:101A3000FB689A61FB689A6AFB68DA62FB681A6B5A
:101A4000FB685A63FB685A6AFB689B6A1946104632
:101A5000FFF790F803461A46FB681B6B19461046C1
:101A6000FFF788F803461A46FB68DA63FB68DA6B0F
:101A7000FB689B6B19461046FFF740FB0346002BA3
:101A800004D0FB689A6BFB681A6417E0FB68DA6B9A
:101A9000FB689B6B83F0004319461046FFF710FB71
:101AA0000346002B06D0FB689B6B83F00042FB686B
:101AB0001A6403E0FB68DA6BFB681A64FB681B6C52
:101AC00018461037BD46B0BD80B485B000AFF86091
:101AD000B9607A60FB68BA689A60FB687A68DA6015
:101AE000FB68034A1A6100BF1437BD4680BC7047CB
:101AF0000000CA4300000000B0B584B000AFF86039
:101B0000B9607A60FB681B681846FEF78DFC4FF0E1
:101B10000002434BFEF70AFE02460B4614461D46E2
:101B2000FB685B681846FEF77FFC4FF000023C4BF9
:101B3000FEF7FCFD02460B46104619464FF0000228
:101B4000384BFEF7C9FC02460B4620462946FEF7F5
:101B50000BFB02460B46104619462FA3D3E9002380
:101B6000FEF7E4FD02460B46104619464FF0000210
:101B70002D4BFEF7B1FC02460B4610461946FEF708
:101B8000A3FF0246BB68DA61FB681B681846FEF7D4
:101B90004BFC4FF00002224BFEF7C8FD02460B46FD
:101BA00014461D46FB685B681846FEF73DFC4FF087
:101BB00000021B4BFEF7BAFD02460B4610461946C3
:101BC0004FF00002174BFEF787FC02460B462046FB
:101BD0002946FEF7CBFA02460B46104619460EA3DD
:101BE000D3E90023FEF7A2FD02460B461046194634
:101BF0004FF000020C4BFEF76FFC02460B461046FE
:101C00001946FEF761FF02467B68DA6100BF1037B4
:101C1000BD46B0BDAFF3008050455254FB21194082
:101C2000004040400040694000004E4080B483B016
:101C300000AF786039607B681B78002B04D07B682C
:101C40001A783B681A7502E03B6830221A7500BFAB
:101C50000C37BD4680BC704790B583B002AF174AC1
:101C600017491848FFF748FF002300930023164A3E
:101C700013491648FFF766FD012300930123144A18
:101C80000E491448FFF75EFD0D4B9B690B4A9269A4
:101C900019460C48FFF718FF0F4A0A4B1446083341
:101CA00093E8070084E807000C220B490B4803F077
:101CB00037FA00BF0437BD4690BD00BF5002002078
:101CC0003002002018020020700200209003002043
:101CD000B8020020D8030020F001002020040020DA
:101CE00080B483B000AF78607B681B68B3F1804F2D
:101CF00002D1044B01221A7000BF0C37BD4680BCD4
:101D0000704700BF1602002080B483B000AF786037
:101D10007B681B68054A934203D1054B1B68054A43
:101D2000136000BF0C37BD4680BC704700440040C4
:101D3000FC0100200402002080B483B000AF786072
:101D40007B681B680E4A934214D07B681B680D4A5F
:101D5000934207D10C4B0D4A12681A600C4B0122BA
:101D60001A7007E07B681B680A4A934202D10A4B4B
:101D700001221A7000BF0C37BD4680BC704700BFFF
:101D8000003801400044004008020020000200200A
:101D900015020020004800401402002080B584B0E5
:101DA00004AF00F0F3FE00F09BF800F007FB00F03A
:101DB000CFFA00F0DBF800F081F900F0CDF900F087
:101DC0001FFA00F071FA00F099FA334B0293334B8B
:101DD0000193324B0093324B4FF080424FF08041E1
:101DE0003048FFF7F1FC2C4B02932C4B01932B4B0B
:101DF00000932B4B4FF080424FF080412A48FFF771
:101E0000E3FC0021294802F059F90421274802F097
:101E100055F90821254802F051F90C21234802F018
:101E20004DF9234802F0A8F83C21224802F08AFA32
:101E30003C21214802F086FA08222049204803F07C
:101E4000DFF901221F49204803F0DAF91F4B93F90B
:101E50000030012B04D1FFF7FFFE1C4B00221A704B
:101E60001B4B93F90030012B08D11A4B1A4A92E808
:101E7000030083E80300164B00221A70174B93F9F6
:101E80000030012BE2D113490E48FFF7CFFE134B70
:101E900000221A70DAE700BF000014420AD7A33C00
:101EA0000AD7233C70020020B80200200003002063
:101EB0004803002090030020D8030020FC010020EC
:101EC000200400200C0200206804002016020020DC
:101ED0001502002018020020040200201402002035
:101EE00080B590B000AF07F11803282200211846F2
:101EF00005F039F83B1D00221A605A609A60DA60DA
:101F00001A610123BB614FF48033FB6100233B6204
:101F10000123BB6202237B634FF48033BB634FF426
:101F2000E013FB6307F11803184601F0C5FB0346F5
:101F3000002B01D000F070FA0F237B600223BB60FE
:101F40000023FB604FF480633B6100237B613B1DFA
:101F50000221184601F032FE0346002B01D000F0AA
:101F60005BFA00BF4037BD4680BD000080B592B02F
:101F700000AF07F1400300221A605A6007F1240302
:101F800000221A605A609A60DA601A615A619A6196
:101F90003B1D20220021184604F0E5FF454B464A30
:101FA0001A60444B47225A60424B00229A60414BD0
:101FB00040F2E732DA603F4B00221A613D4B0022CB
:101FC0005A613C4B00229A613A4802F027F80346D6
:101FD000002B01D000F020FA00233B6400237B6437
:101FE00007F140031946334802F088FF0346002BEF
:101FF00001D000F011FA60237B620023BB62002352
:10200000FB6200233B6300237B630023BB6300234D
:10201000FB6307F1240300221946264802F010FB57
:102020000346002B01D000F0F7F907F12403042246
:102030001946204802F004FB0346002B01D000F0B3
:10204000EBF907F12403082219461A4802F0F8FABE
:102050000346002B01D000F0DFF907F124030C2226
:102060001946144802F0ECFA0346002B01D000F0A8
:10207000D3F900237B600023BB600023FB600023B7
:102080003B6100237B614FF40053BB6100233B6243
:102090003B1D1946074802F08FFF0346002B01D075
:1020A00000F0BAF9034800F09DFA00BF4837BD467A
:1020B00080BD00BF00030020002C014080B586B029
:1020C00000AF07F1080300221A605A609A60DA60D4
:1020D0003B4600221A605A601E4B4FF080421A6045
:1020E0001C4B40F2CF225A601A4B00229A60194BC7
:1020F00040F2CF72DA60174B00221A61154B0022B2
:102100009A61144801F0E8FE0346002B01D000F06C
:1021100083F94FF48053BB6007F1080319460D485B
:1021200002F050FB0346002B01D000F075F90023AC
:102130003B6000237B603B461946064802F0DEFE0A
:102140000346002B01D000F067F900BF1837BD46E9
:1021500080BD00BF4803002080B58CB000AF07F100
:102160000C0324220021184604F0FDFE3B1D002232
:102170001A605A60204B214A1A601F4B00225A6095
:102180001D4B00229A601C4B4FF6FF72DA601A4B0F
:1021900000221A61184B00229A610323FB6000237E
:1021A0003B6101237B610023BB610023FB610023B2
:1021B0003B6201237B620023BB620023FB6207F1C9
:1021C0000C0319460C4802F01BF80346002B01D003
:1021D00000F022F900237B600023BB603B1D194601
:1021E000054802F08BFE0346002B01D000F014F9E5
:1021F00000BF3037BD4680BD900300200004004082
:1022000080B58CB000AF07F10C03242200211846E2
:1022100004F0A9FE3B1D00221A605A60204B214A9F
:102220001A601F4B00225A601D4B00229A601C4B03
:102230004FF6FF72DA601A4B00221A61184B002227
:102240009A610323FB6000233B6101237B61002330
:10225000BB610023FB6100233B6201237B620023FF
:10226000BB620023FB6207F10C0319460C4801F026
:10227000C7FF0346002B01D000F0CEF800237B609F
:102280000023BB603B1D1946054802F037FE03469C
:10229000002B01D000F0C0F800BF3037BD4680BD34
:1022A000D80300200008004080B500AF114B124A4F
:1022B0001A60104B4FF4E1325A600E4B00229A60C4
:1022C0000C4B0022DA600B4B00221A61094B0C22E6
:1022D0005A61084B00229A61064B0022DA610548D8
:1022E00002F0CDFE0346002B01D000F095F800BFB0
:1022F00080BD00BF200400200044004080B500AF36
:10230000114B124A1A60104B4FF4E1325A600E4BD7
:1023100000229A600C4B0022DA600B4B00221A61FB
:10232000094B0C225A61084B00229A61064B00228D
:10233000DA61054802F0A3FE0346002B01D000F04D
:102340006BF800BF80BD00BF68040020004800405B
:1023500080B582B000AF184B5B69174A43F00103A8
:102360005361154B5B6903F001037B607B680022BE
:1023700000210C2000F043FD0C2000F05CFD002249
:1023800000210D2000F03BFD0D2000F054FD002247
:102390000021102000F033FD102000F04CFD002241
:1023A0000021112000F02BFD112000F044FD00BFA2
:1023B0000837BD4680BD00BF0010024080B485B024
:1023C00000AF144B9B69134A43F020039361114BF8
:1023D0009B6903F02003FB60FB680E4B9B690D4A71
:1023E00043F0040393610B4B9B6903F00403BB6050
:1023F000BB68084B9B69074A43F008039361054B90
:102400009B6903F008037B607B6800BF1437BD46FF
:1024100080BC70470010024080B400AF72B600BFAD
:1024200000BFFDE780B485B000AF154B9B69144A2F
:1024300043F001039361124B9B6903F00103BB60FE
:10244000BB680F4BDB690E4A43F08053D3610C4BE2
:10245000DB6903F080537B607B680A4B5B68FB6041
:10246000FB6823F0E063FB60FB6843F00073FB60F4
:10247000044AFB68536000BF1437BD4680BC7047F8
:10248000001002400000014080B485B000AF7860C9
:102490007B681B68094A93420BD1094B9B69084A28
:1024A00043F400639361064B9B6903F40063FB6094
:1024B000FB6800BF1437BD4680BC7047002C01404C
:1024C0000010024080B584B000AF78607B681B6864
:1024D000B3F1804F13D10C4BDB690B4A43F001037E
:1024E000D361094BDB6903F00103FB60FB68002249
:1024F00000211C2000F083FC1C2000F09CFC00BF8D
:102500001037BD4680BD00BF0010024080B58AB0C4
:1025100000AF786007F1180300221A605A609A60D1
:10252000DA607B681B682A4A934224D1294BDB6915
:10253000284A43F00203D361264BDB6903F0020310
:102540007B617B69234B9B69224A43F004039361BF
:10255000204B9B6903F004033B613B69C023BB61D3
:102560000023FB6100233B6207F1180319461A4858
:1025700000F01EFF28E07B681B68184A934223D1B5
:10258000144BDB69134A43F00403D361114BDB693D
:1025900003F00403FB60FB680E4B9B690D4A43F09C
:1025A000080393610B4B9B6903F00803BB60BB6896
:1025B000C023BB610023FB6100233B6207F11803CA
:1025C0001946074800F0F4FE00BF2837BD4680BD1D
:1025D00000040040001002400008014000080040D4
:1025E000000C014080B588B000AF786007F110039F
:1025F00000221A605A609A60DA607B681B68104A91
:10260000934218D10F4B9B690E4A43F00403936128
:102610000C4B9B6903F00403FB60FB684FF4706391
:102620003B6102237B610223FB6107F11003194622
:10263000054800F0BDFE00BF2037BD4680BD00BF8D
:10264000002C0140001002400008014080B58AB013
:1026500000AF786007F1180300221A605A609A6090
:10266000DA607B681B688C4A934240F085808B4B14
:10267000DB698A4A43F40033D361884BDB6903F496
:1026800000337B617B69854B9B69844A43F004037B
:102690009361824B9B6903F004033B613B69042314
:1026A000BB610223FB6103237B6207F11803194618
:1026B0007B4800F07DFE0823BB610023FB61002303
:1026C0003B6207F118031946754800F071FE754B1F
:1026D000754A1A60734B00225A60724B00229A604E
:1026E000704B8022DA606F4B00221A616D4B002222
:1026F0005A616C4B20229A616A4B0022DA61694868
:1027000000F0B4FB0346002B01D0FFF785FE7B6889
:10271000644ADA63634A7B685362644B644A1A60B2
:10272000624B10225A60614B00229A605F4B8022FC
:10273000DA605E4B00221A615C4B00225A615B4BEF
:1027400000229A61594B0022DA61584800F08EFB52
:102750000346002B01D0FFF75FFE7B68534A9A6364
:10276000524A7B68536200220021262000F047FB7A
:10277000262000F060FB8BE07B681B684D4A93428B
:1027800040F08680454BDB69444A43F48023D361A3
:10279000424BDB6903F48023FB60FB683F4B9B6982
:1027A0003E4A43F0080393613C4B9B6903F00803E6
:1027B000BB60BB684FF48063BB610223FB610323F2
:1027C0007B6207F1180319463B4800F0F1FD4FF416
:1027D0000063BB610023FB6100233B6207F1180328
:1027E0001946354800F0E4FD344B354A1A60334B46
:1027F00000225A60314B00229A60304B8022DA600E
:102800002E4B00221A612D4B00225A612B4B2022A5
:102810009A612A4B0022DA61284800F027FB034620
:10282000002B01D0FFF7F8FD7B68244ADA63234AC6
:102830007B685362234B244A1A60224B10225A6051
:10284000204B00229A601F4B8022DA601D4B002231
:102850001A611C4B00225A611A4B00229A61194BD3
:102860000022DA61174800F001FB0346002B01D07B
:10287000FFF7D2FD7B68134A9A63124A7B68536262
:1028800000220021272000F0BAFA272000F0D3FA16
:1028900000BF2837BD4680BD004400400010024004
:1028A00000080140B00400206C000240F404002045
:1028B0008000024000480040000C01403805002024
:1028C000300002407C0500201C00024080B400AFB4
:1028D00000BFFDE780B400AF00BFFDE780B400AFEC
:1028E00000BFFDE780B400AF00BFFDE780B400AFDC
:1028F00000BFFDE780B400AF00BFBD4680BC70479D
:1029000080B400AF00BFBD4680BC704780B400AF4C
:1029100000BFBD4680BC704780B500AF00F07CF9B9
:1029200000BF80BD80B500AF024800F00DFC00BFC5
:1029300080BD00BF7C05002080B500AF024800F0DC
:1029400003FC00BF80BD00BF3805002080B500AF8C
:10295000024800F0F9FB00BF80BD00BFB0040020BA
:1029600080B500AF024800F0EFFB00BF80BD00BFA4
:10297000F404002080B500AF024801F071FD00BFF3
:1029800080BD00BF4803002080B500AF024802F0C0
:102990005DFC00BF80BD00BF2004002080B500AFFB
:1029A000024802F053FC00BF80BD00BF6804002055
:1029B00080B400AF01231846BD4680BC704780B587
:1029C00082B000AF7860396004F020FB0346162225
:1029D0001A604FF0FF3318460837BD4680BD80B5FA
:1029E00082B000AF78604FF0FF317868FFF7E7FF03
:1029F00000BFFDE780B586B000AFF860B9607A60CF
:102A000000237B610AE0AFF300800146BB685A1CDB
:102A1000BA60CAB21A707B6901337B617A697B68DC
:102A20009A42F0DB7B6818461837BD4680BD80B5FA
:102A300086B000AFF860B9607A6000237B6109E07E
:102A4000BB685A1CBA601B781846AFF300807B69DC
:102A500001337B617A697B689A42F1DB7B681846B7
:102A60001837BD4680BD80B483B000AF78604FF0AA
:102A7000FF3318460C37BD4680BC704780B483B026
:102A800000AF786039603B684FF400525A60002311
:102A900018460C37BD4680BC704780B483B000AF89
:102AA0007860012318460C37BD4680BC704780B45F
:102AB00085B000AFF860B9607A600023184614371B
:102AC000BD4680BC7047000080B586B000AF78601E
:102AD000144A154BD31A7B617B693B61134B1B680E
:102AE000002B02D1114B124A1A60104B1A687B68F6
:102AF00013443A699A4207D204F088FA03460C223A
:102B00001A604FF0FF3309E0084B1B68FB60074B6E
:102B10001A687B681344054A1360FB681846183727
:102B2000BD4680BD0050002000040000C00500200C
:102B30001807002080B400AF00BFBD4680BC7047BE
:102B4000FFF7F8FF0B480C490C4A002302E0D45869
:102B5000C4500433C4188C42F9D3094A094C0023E9
:102B600001E013600432A242FBD304F055FAFFF7F0
:102B700015F9704700000020D401002080AB000848
:102B8000D401002014070020FEE7000080B500AF4C
:102B9000084B1B68074A43F010031360032000F042
:102BA00023F90F2000F008F8FFF73CFC002318463B
:102BB00080BD00BF0020024080B582B000AF7860C9
:102BC000124B1A68124B1B7819464FF47A73B3FBF9
:102BD000F1F3B2FBF3F3184600F03BF90346002B88
:102BE00001D001230EE07B680F2B0AD80022796800
:102BF0004FF0FF3000F003F9064A7B6813600023B2
:102C000000E0012318460837BD4680BD00000020C3
:102C1000080000200400002080B400AF054B1B78A2
:102C20001A46054B1B681344034A136000BFBD4698
:102C300080BC704708000020C405002080B400AFAD
:102C4000024B1B681846BD4680BC7047C405002077
:102C500080B485B000AF78607B6803F00703FB6049
:102C60000C4BDB68BB60BA684FF6FF031340BB60D8
:102C7000FB681A02BB68134343F0BF6343F400339D
:102C8000BB60044ABB68D36000BF1437BD4680BC3C
:102C9000704700BF00ED00E080B400AF044BDB687C
:102CA0001B0A03F007031846BD4680BC704700BFEF
:102CB00000ED00E080B483B000AF0346FB7197F9EC
:102CC0000730002B0BDBFB7903F01F02064997F955
:102CD00007305B09012000FA02F241F8232000BF0F
:102CE0000C37BD4680BC704700E100E080B483B083
:102CF00000AF03463960FB7197F90730002B0ADB00
:102D00003B68DAB20C4997F907301201D2B20B4492
:102D100083F800230AE03B68DAB20849FB7903F044
:102D20000F03043B1201D2B20B441A7600BF0C37DA
:102D3000BD4680BC704700BF00E100E000ED00E050
:102D400080B489B000AFF860B9607A60FB6803F0C6
:102D50000703FB61FB69C3F10703042B28BF0423AE
:102D6000BB61FB690433062B02D9FB69033B00E01E
:102D700000237B614FF0FF32BB6902FA03F3DA43B1
:102D8000BB681A407B699A404FF0FF317B6901FABA
:102D900003F3D9437B680B40134318462437BD46E1
:102DA00080BC704780B582B000AF78607B68013B23
:102DB000B3F1807F01D301230FE00A4A7B68013B16
:102DC00053600F214FF0FF30FFF790FF054B0022BB
:102DD0009A60044B07221A60002318460837BD4644
:102DE00080BD00BF10E000E080B582B000AF786029
:102DF0007868FFF72DFF00BF0837BD4680BD80B55E
:102E000086B000AF0346B9607A60FB7300237B6134
:102E1000FFF742FF78617A68B9687869FFF790FF39
:102E2000024697F90F3011461846FFF75FFF00BFC3
:102E30001837BD4680BD80B582B000AF0346FB7138
:102E400097F907301846FFF735FF00BF0837BD4632
:102E500080BD80B582B000AF78607868FFF7A2FFD0
:102E6000034618460837BD4680BD000080B485B0D3
:102E700000AF78600023FB607B68002B01D1012349
:102E800043E07B681B681A46224B1344224AA2FB8C
:102E900003231B099A007B681A647B681F4ADA6364
:102EA0007B68022283F821207B681B681B68FB601B
:102EB000FB6823F47F5323F03003FB607B685A6880
:102EC0007B689B681A437B68DB681A437B681B69D5
:102ED0001A437B685B691A437B689B691A437B686A
:102EE000DB691343FA681343FB607B681B68FA686D
:102EF0001A607B6800229A637B68012283F8212094
:102F00007B68002283F82020002318461437BD4632
:102F100080BC7047F8FFFDBFCDCCCCCC0000024098
:102F200080B586B000AFF860B9607A603B6000237E
:102F3000FB75FB6893F82030012B01D102234BE095
:102F4000FB68012283F82020FB6893F82130DBB274
:102F5000012B3AD1FB68022283F82120FB68002272
:102F60009A63FB681B681A68FB681B6822F0010201
:102F70001A603B687A68B968F86800F0EBF9FB689A
:102F8000DB6A002B08D0FB681B681A68FB681B68AB
:102F900042F00E021A600FE0FB681B681A68FB68BB
:102FA0001B6822F004021A60FB681B681A68FB6841
:102FB0001B6842F00A021A60FB681B681A68FB680B
:102FC0001B6842F001021A6005E0FB68002283F8EA
:102FD00020200223FB75FB7D18461837BD4680BDB7
:102FE00080B485B000AF78600023FB737B6893F8F2
:102FF0002130DBB2022B08D07B6804229A637B6805
:10300000002283F82020012320E07B681B681A68D7
:103010007B681B6822F00E021A607B681B681A68C6
:103020007B681B6822F001021A607B681A6C7B685F
:10303000DB6B012101FA02F25A607B68012283F8FE
:1030400021207B68002283F82020FB7B1846143760
:10305000BD4680BC7047000080B584B000AF78608A
:103060000023FB737B6893F82130DBB2022B05D081
:103070007B6804229A630123FB7351E07B681B6821
:103080001A687B681B6822F00E021A607B681B6856
:103090001A687B681B6822F001021A607B681B6853
:1030A000224A934229D07B681B68214A934222D04E
:1030B0007B681B681F4A93421AD07B681B681E4AB4
:1030C000934212D07B681B681C4A93420AD07B68EB
:1030D0001B681B4A934202D14FF480130EE04FF05D
:1030E00080730BE04FF4803308E04FF4805305E029
:1030F0004FF4807302E0102300E00123114A536073
:103100007B68012283F821207B68002283F820203D
:103110007B685B6B002B03D07B685B6B78689847A0
:10312000FB7B18461037BD4680BD00BF080002403B
:103130001C0002403000024044000240580002409F
:103140006C0002400000024080B584B000AF78609F
:103150007B68DB6B1B68FB607B681B681B68BB6064
:103160007B681B6C04229A40FB681340002B4FD0F5
:10317000BB6803F00403002B4AD07B681B681B6804
:1031800003F02003002B07D17B681B681A687B685B
:103190001B6822F004021A607B681B68664A93422F
:1031A00029D07B681B68654A934222D07B681B68E4
:1031B000634A93421AD07B681B68624A934212D0DA
:1031C0007B681B68604A93420AD07B681B685F4A31
:1031D000934202D14FF480030EE04FF080630BE086
:1031E0004FF4802308E04FF4804305E04FF4806300
:1031F00002E0402300E00423554A53607B68DB6A09
:10320000002B00F094807B68DB6A786898478EE03A
:103210007B681B6C02229A40FB681340002B56D03F
:10322000BB6803F00203002B51D07B681B681B684E
:1032300003F02003002B0BD17B681B681A687B68A6
:103240001B6822F00A021A607B68012283F82120A1
:103250007B681B68384A934229D07B681B68374AD1
:10326000934222D07B681B68354A93421AD07B6810
:103270001B68344A934212D07B681B68324A9342DF
:103280000AD07B681B68314A934202D14FF4001385
:103290000EE04FF000730BE04FF4003308E04FF402
:1032A000005305E04FF4007302E0202300E0022306
:1032B000274A53607B68002283F820207B689B6A42
:1032C000002B34D07B689B6A786898472FE07B6836
:1032D0001B6C08229A40FB681340002B28D0BB6867
:1032E00003F00803002B23D07B681B681A687B68F7
:1032F0001B6822F00E021A607B681A6C7B68DB6B1D
:10330000012101FA02F25A607B6801229A637B680C
:10331000012283F821207B68002283F820207B682B
:103320001B6B002B04D07B681B6B7868984700BF31
:1033300000BF1037BD4680BD080002401C0002409F
:103340003000024044000240580002406C0002403D
:103350000000024080B485B000AFF860B9607A60C8
:103360003B60FB681A6CFB68DB6B012101FA02F21F
:103370005A60FB681B683A685A60FB685B68102BF0
:1033800008D1FB681B687A689A60FB681B68BA689A
:10339000DA6007E0FB681B68BA689A60FB681B6824
:1033A0007A68DA6000BF1437BD4680BC7047000001
:1033B00080B48BB000AF7860396000237B6200235B
:1033C0003B6269E101227B6A02FA03F3FB613B681D
:1033D0001B68FA691340BB61BA69FB699A4240F005
:1033E00058813B685B689A4A93425ED0984A934200
:1033F00075D8984A934258D0964A93426FD8964AC5
:10340000934252D0944A934269D8944A93424CD002
:10341000924A934263D8924A934246D0904A93424A
:103420005DD8122B2AD8122B59D801A252F823F0BA
:10343000AB3400088534000897340008D9340008FC
:10344000DF340008DF340008DF340008DF34000810
:10345000DF340008DF340008DF340008DF34000800
:10346000DF340008DF340008DF340008DF340008F0
:10347000DF3400088D340008A1340008794A9342F3
:1034800013D02CE03B68DB683B6229E03B68DB68DB
:1034900004333B6224E03B68DB6808333B621FE097
:1034A0003B68DB680C333B621AE03B689B68002B8F
:1034B00002D104233B6213E03B689B68012B05D1DA
:1034C00008233B627B68FA691A6109E008233B62C2
:1034D0007B68FA695A6103E000233B6200E000BFA9
:1034E000BB69FF2B01D87B6801E07B6804337B61FB
:1034F000BB69FF2B02D87B6A9B0002E07B6A083B1A
:103500009B003B617B691A680F213B6901FA03F359
:10351000DB431A40396A3B6901FA03F31A437B69BA
:103520001A603B685B6803F08053002B00F0B180A9
:103530004D4B9B694C4A43F0010393614A4B9B6995
:1035400003F00103BB60BB68484A7B6A9B080233F7
:1035500052F82330FB607B6A03F003039B000F22C9
:1035600002FA03F3DB43FA681340FB607B68404ACE
:10357000934213D07B683F4A93420DD07B683E4A0A
:10358000934207D07B683D4A934201D1032306E072
:10359000042304E0022302E0012300E000237A6A0E
:1035A00002F0030292009340FA681343FB602F4934
:1035B0007B6A9B080233FA6841F823203B685B680A
:1035C00003F48013002B06D02D4B9A682C49BB695D
:1035D00013438B6006E02A4B9A68BB69DB4328499A
:1035E00013408B603B685B6803F40013002B06D02C
:1035F000234BDA682249BB691343CB6006E0204BBA
:10360000DA68BB69DB431E491340CB603B685B68EB
:1036100003F40033002B06D0194B5A681849BB69D4
:1036200013434B6006E0164B5A68BB69DB431449F1
:1036300013404B603B685B6803F48033002B21D060
:103640000F4B1A680E49BB6913430B6021E000BFA2
:103650000000321000003110000022100000211084
:103660000000121000001110001002400000014084
:1036700000080140000C014000100140001401400E
:10368000000401400B4B1A68BB69DB430949134036
:103690000B607B6A01337B623B681A687B6A22FAA3
:1036A00003F3002B7FF48EAE00BF00BF2C37BD4666
:1036B00080BC70470004014080B586B000AF7860E0
:1036C0007B68002B01D1012372E27B681B6803F049
:1036D0000103002B00F08780924B5B6803F00C0322
:1036E000042B0CD08F4B5B6803F00C03082B12D11A
:1036F0008C4B5B6803F48033B3F5803F0BD1894B6F
:103700001B6803F40033002B6CD07B685B68002BD4
:1037100068D101234CE27B685B68B3F5803F06D13A
:10372000804B1B687F4A43F4803313602EE07B6834
:103730005B68002B0CD17B4B1B687A4A23F48033E7
:103740001360784B1B68774A23F4802313601DE0D5
:103750007B685B68B3F5A02F0CD1724B1B68714A74
:1037600043F4802313606F4B1B686E4A43F480332D
:1037700013600BE06B4B1B686A4A23F480331360C1
:10378000684B1B68674A23F4802313607B685B687F
:10379000002B13D0FFF752FA386108E0FFF74EFA1A
:1037A00002463B69D31A642B01D9032300E25D4B27
:1037B0001B6803F40033002BF0D014E0FFF73EFA4F
:1037C000386108E0FFF73AFA02463B69D31A642BE6
:1037D00001D90323ECE1534B1B6803F40033002BA6
:1037E000F0D100E000BF7B681B6803F00203002BF0
:1037F00063D04C4B5B6803F00C03002B0BD0494BA0
:103800005B6803F00C03082B1CD1464B5B6803F488
:103810008033002B16D1434B1B6803F00203002BAF
:1038200005D07B681B69012B01D00123C0E13D4B12
:103830001B6823F0F8027B685B69DB00394913439E
:103840000B603AE07B681B69002B20D0364B0122CD
:103850001A60FFF7F3F9386108E0FFF7EFF9024665
:103860003B69D31A022B01D90323A1E12D4B1B681D
:1038700003F00203002BF0D02A4B1B6823F0F80260
:103880007B685B69DB00274913430B6015E0264B1F
:1038900000221A60FFF7D2F9386108E0FFF7CEF98D
:1038A00002463B69D31A022B01D9032380E11D4B49
:1038B0001B6803F00203002BF0D17B681B6803F048
:1038C0000803002B3AD07B689B69002B19D0174B5B
:1038D00001221A60FFF7B2F9386108E0FFF7AEF98C
:1038E00002463B69D31A022B01D9032360E10D4B39
:1038F0005B6A03F00203002BF0D0012000F0CEFA47
:103900001CE00A4B00221A60FFF798F938610FE0BB
:10391000FFF794F902463B69D31A022B08D9032317
:1039200046E100BF001002400000424280044242D3
:10393000924B5B6A03F00203002BE9D17B681B68A2
:1039400003F00403002B00F0A6800023FB758B4BD3
:10395000DB6903F08053002B0DD1884BDB69874A6C
:1039600043F08053D361854BDB6903F08053BB6028
:10397000BB680123FB75824B1B6803F48073002B2B
:1039800018D17F4B1B687E4A43F480731360FFF7A6
:1039900055F9386108E0FFF751F902463B69D31A3F
:1039A000642B01D9032303E1754B1B6803F4807377
:1039B000002BF0D07B68DB68012B06D16F4B1B6AB4
:1039C0006E4A43F0010313622DE07B68DB68002B35
:1039D0000CD16A4B1B6A694A23F001031362674BDF
:1039E0001B6A664A23F0040313621CE07B68DB68F1
:1039F000052B0CD1614B1B6A604A43F00403136230
:103A00005E4B1B6A5D4A43F0010313620BE05B4BA4
:103A10001B6A5A4A23F001031362584B1B6A574A28
:103A200023F0040313627B68DB68002B15D0FFF7DB
:103A300005F938610AE0FFF701F902463B69D31A3C
:103A400041F28832934201D90323B1E04B4B1B6A08
:103A500003F00203002BEED014E0FFF7EFF838611B
:103A60000AE0FFF7EBF802463B69D31A41F28832CD
:103A7000934201D903239BE0404B1B6A03F00203EE
:103A8000002BEED1FB7D012B05D13C4BDB693B4A82
:103A900023F08053D3617B68DB69002B00F08780C3
:103AA000364B5B6803F00C03082B61D07B68DB6945
:103AB000022B46D1334B00221A60FFF7BFF8386162
:103AC00008E0FFF7BBF802463B69D31A022B01D985
:103AD00003236DE0294B1B6803F00073002BF0D12A
:103AE0007B681B6AB3F5803F08D1244B5B6823F4E5
:103AF00000327B689B68214913434B601F4B5B6816
:103B000023F474127B68196A7B685B6A0B431B4958
:103B100013434B601B4B01221A60FFF78FF838618B
:103B200008E0FFF78BF802463B69D31A022B01D954
:103B300003233DE0114B1B6803F00073002BF0D012
:103B400035E0104B00221A60FFF778F8386108E082
:103B5000FFF774F802463B69D31A022B01D90323FD
:103B600026E0064B1B6803F00073002BF0D11EE02B
:103B70007B68DB69012B07D1012319E000100240AB
:103B800000700040600042420B4B5B68FB60FB68CA
:103B900003F480327B681B6A9A4206D1FB6803F407
:103BA00070127B685B6A9A4201D0012300E0002317
:103BB00018461837BD4680BD0010024080B584B05D
:103BC00000AF786039607B68002B01D10123D0E021
:103BD0006A4B1B6803F007033A689A4210D9674B97
:103BE0001B6823F0070265493B6813430B60634B76
:103BF0001B6803F007033A689A4201D00123B8E03A
:103C00007B681B6803F00203002B20D07B681B68D5
:103C100003F00403002B05D0594B5B68584A43F46A
:103C2000E06353607B681B6803F00803002B05D03A
:103C3000534B5B68524A43F460535360504B5B688C
:103C400023F0F0027B689B684D4913434B607B680F
:103C50001B6803F00103002B40D07B685B68012BDD
:103C600007D1474B1B6803F40033002B15D1012308
:103C70007FE07B685B68022B07D1414B1B6803F038
:103C80000073002B09D1012373E03D4B1B6803F047
:103C90000203002B01D101236BE0394B5B6823F059
:103CA00003027B685B68364913434B60FEF7C6FF2F
:103CB000F8600AE0FEF7C2FF0246FB68D31A41F241
:103CC0008832934201D9032353E02D4B5B6803F004
:103CD0000C027B685B689B009A42EBD1274B1B6808
:103CE00003F007033A689A4210D2244B1B6823F072
:103CF000070222493B6813430B60204B1B6803F00B
:103D000007033A689A4201D0012332E07B681B68BE
:103D100003F00403002B08D0194B5B6823F4E06226
:103D20007B68DB68164913434B607B681B6803F0B4
:103D30000803002B09D0124B5B6823F460527B68A8
:103D40001B69DB000E4913434B6000F021F802466B
:103D50000B4B5B681B0903F00F030A49CB5C22FA8B
:103D600003F3094A1360094B1B681846FEF724FF4A
:103D7000002318461037BD4680BD00BF002002401A
:103D80000010024018A700080000002004000020D6
:103D900080B487B000AF0023FB600023BB6000232A
:103DA0007B6100237B6000233B611E4B5B68FB60F3
:103DB000FB6803F00C03042B02D0082B03D027E090
:103DC000194B3B6127E0FB689B0C03F00F03174A7C
:103DD000D35C7B60FB6803F48033002B10D0114B65
:103DE0005B685B0C03F00103114AD35CBB607B682A
:103DF0000D4A03FB02F2BB68B2FBF3F37B6104E004
:103E00007B680C4A02FB03F37B617B693B6102E048
:103E1000054B3B6100BF3B6918461C37BD4680BC63
:103E2000704700BF0010024000127A0030A700085F
:103E300040A7000800093D0080B400AF024B1B689A
:103E40001846BD4680BC70470000002080B500AF1A
:103E5000FFF7F2FF0246054B5B681B0A03F00703FE
:103E60000349CB5C22FA03F3184680BD00100240E0
:103E700028A7000880B500AFFFF7DEFF0246054B1C
:103E80005B68DB0A03F007030349CB5C22FA03F308
:103E9000184680BD0010024028A7000880B485B0F5
:103EA00000AF78600A4B1B680A4AA2FB03235B0A37
:103EB0007A6802FB03F3FB6000BFFB685A1EFA60DE
:103EC000002BF9D100BF00BF1437BD4680BC70473E
:103ED00000000020D34D621080B582B000AF786042
:103EE0007B68002B01D1012341E07B6893F83D30D2
:103EF000DBB2002B06D17B68002283F83C20786877
:103F0000FEF7E0FA7B68022283F83D207B681A689E
:103F10007B6804331946104600F040FD7B6801229F
:103F200083F846207B68012283F83E207B680122CB
:103F300083F83F207B68012283F840207B680122C0
:103F400083F841207B68012283F842207B680122AC
:103F500083F843207B68012283F844207B68012298
:103F600083F845207B68012283F83D200023184612
:103F70000837BD4680BD000080B485B000AF7860D2
:103F80007B6893F83D30DBB2012B01D001233AE08E
:103F90007B68022283F83D207B681B68DA687B68B7
:103FA0001B6842F00102DA607B681B68184A934282
:103FB0000ED07B681B68B3F1804F09D07B681B680B
:103FC000144A934204D07B681B68134A934211D170
:103FD0007B681B689B6803F00703FB60FB68062B8C
:103FE00010D07B681B681A687B681B6842F001026E
:103FF0001A6007E07B681B681A687B681B6842F0E0
:1040000001021A60002318461437BD4680BC704771
:10401000002C0140000400400008004080B582B040
:1040200000AF78607B68002B01D1012341E07B6801
:1040300093F83D30DBB2002B06D17B68002283F879
:104040003C207868FEF720FA7B68022283F83D2046
:104050007B681A687B6804331946104600F09EFCA2
:104060007B68012283F846207B68012283F83E208A
:104070007B68012283F83F207B68012283F840207F
:104080007B68012283F841207B68012283F842206B
:104090007B68012283F843207B68012283F8442057
:1040A0007B68012283F845207B68012283F83D204C
:1040B000002318460837BD4680BD000080B584B097
:1040C00000AF786039603B68002B09D17B6893F8BA
:1040D0003E30DBB2012B14BF01230023DBB222E010
:1040E0003B68042B09D17B6893F83F30DBB2012B8E
:1040F00014BF01230023DBB215E03B68082B09D174
:104100007B6893F84030DBB2012B14BF01230023FE
:10411000DBB208E07B6893F84130DBB2012B14BFBF
:1041200001230023DBB2002B01D001235EE03B68BA
:10413000002B04D17B68022283F83E2013E03B6809
:10414000042B04D17B68022283F83F200BE03B68FC
:10415000082B04D17B68022283F8402003E07B68AF
:10416000022283F841207B681B68012239681846C7
:1041700000F0A0FE7B681B681E4A934207D17B6853
:104180001B685A6C7B681B6842F400425A647B6867
:104190001B68184A93420ED07B681B68B3F1804FAE
:1041A00009D07B681B68144A934204D07B681B6863
:1041B000124A934211D17B681B689B6803F0070386
:1041C000FB60FB68062B10D07B681B681A687B6855
:1041D0001B6842F001021A6007E07B681B681A68DE
:1041E0007B681B6842F001021A60002318461037F2
:1041F000BD4680BD002C0140000400400008004086
:1042000080B586B000AF786039607B68002B01D143
:10421000012393E07B6893F83D30DBB2002B06D19D
:104220007B68002283F83C207868FEF76FF97B6892
:10423000022283F83D207B681B689B687A681268BD
:1042400023F4804323F0070393607B681A687B683C
:1042500004331946104600F0A1FB7B681B689B687D
:104260007B617B681B689B693B617B681B681B6A81
:10427000FB603B681B687A6913437B613B6923F4ED
:10428000407323F003033B613B689A683B689B697A
:104290001B0213433A6913433B613B6923F44063B8
:1042A00023F00C033B613B6923F4704323F0F003DC
:1042B0003B613B68DA683B68DB691B0213433A6980
:1042C00013433B613B681B691A013B681B6A1B0374
:1042D00013433A6913433B61FB6823F02203FB60FD
:1042E0003B685A683B685B691B011343FA681343D8
:1042F000FB607B681B687A699A607B681B683A6917
:104300009A617B681B68FA681A627B68012283F8ED
:1043100046207B68012283F83E207B68012283F8D7
:104320003F207B68012283F842207B68012283F8CA
:1043300043207B68012283F83D200023184618376C
:10434000BD4680BD80B584B000AF786039607B68C1
:1043500093F83E30FB737B6893F83F30BB737B6808
:1043600093F842307B737B6893F843303B733B6830
:10437000002B10D1FB7B012B02D17B7B012B01D0C9
:10438000012369E07B68022283F83E207B680222D9
:1043900083F8422031E03B68042B10D1BB7B012B1A
:1043A00002D13B7B012B01D0012355E07B68022227
:1043B00083F83F207B68022283F843201DE0FB7BCB
:1043C000012B08D1BB7B012B05D17B7B012B02D1BB
:1043D0003B7B012B01D001233EE07B68022283F866
:1043E0003E207B68022283F83F207B68022283F80C
:1043F00042207B68022283F843203B68002B03D0D5
:104400003B68042B08D00FE07B681B680122002169
:10441000184600F04FFD16E07B681B68012204215E
:10442000184600F047FD0EE07B681B680122002162
:10443000184600F03FFD7B681B68012204211846E6
:1044400000F038FD00BF7B681B681A687B681B683A
:1044500042F001021A60002318461037BD4680BDA5
:1044600080B584B000AF78607B681B68DB68FB6058
:104470007B681B681B69BB60BB6803F00203002BF1
:1044800020D0FB6803F00203002B1BD07B681B6865
:104490006FF002021A617B6801221A777B681B6841
:1044A0009B6903F00303002B03D0786800F05AFAED
:1044B00005E0786800F04DFA786800F05CFA7B68F7
:1044C00000221A77BB6803F00403002B20D0FB689E
:1044D00003F00403002B1BD07B681B686FF0040201
:1044E0001A617B6802221A777B681B689B6903F458
:1044F0004073002B03D0786800F034FA05E0786848
:1045000000F027FA786800F036FA7B6800221A7704
:10451000BB6803F00803002B20D0FB6803F00803FE
:10452000002B1BD07B681B686FF008021A617B6848
:1045300004221A777B681B68DB6903F00303002BF6
:1045400003D0786800F00EFA05E0786800F001FA10
:10455000786800F010FA7B6800221A77BB6803F0D5
:104560001003002B20D0FB6803F01003002B1BD09E
:104570007B681B686FF010021A617B6808221A774B
:104580007B681B68DB6903F44073002B03D07868F9
:1045900000F0E8F905E0786800F0DBF9786800F0F1
:1045A000EAF97B6800221A77BB6803F00103002B4D
:1045B0000CD0FB6803F00103002B07D07B681B685D
:1045C0006FF001021A617868FDF78AFBBB6803F09F
:1045D0008003002B0CD0FB6803F08003002B07D076
:1045E0007B681B686FF080021A61786800F03EFDFE
:1045F000BB6803F04003002B0CD0FB6803F04003C2
:10460000002B07D07B681B686FF040021A61786846
:1046100000F0BAF9BB6803F02003002B0CD0FB6854
:1046200003F02003002B07D07B681B686FF020028B
:104630001A61786800F011FD00BF1037BD4680BDDB
:1046400080B586B000AFF860B9607A600023FB7572
:10465000FB6893F83C30012B01D10223AEE0FB68EC
:10466000012283F83C207B680C2B00F29F8001A282
:1046700052F823F0A9460008AD470008AD470008EE
:10468000AD470008E9460008AD470008AD470008FF
:10469000AD4700082B470008AD470008AD470008AC
:1046A000AD4700086B470008FB681B68B9681846EF
:1046B00000F0E2F9FB681B689A69FB681B6842F02E
:1046C00008029A61FB681B689A69FB681B6822F004
:1046D00004029A61FB681B689969BB681A69FB68E8
:1046E0001B680A439A6164E0FB681B68B968184656
:1046F00000F028FAFB681B689A69FB681B6842F4A3
:1047000000629A61FB681B689A69FB681B6822F467
:1047100080629A61FB681B689969BB681B691A0211
:10472000FB681B680A439A6143E0FB681B68B96831
:10473000184600F071FAFB681B68DA69FB681B68B1
:1047400042F00802DA61FB681B68DA69FB681B68E3
:1047500022F00402DA61FB681B68D969BB681A6938
:10476000FB681B680A43DA6123E0FB681B68B968D1
:10477000184600F0BBFAFB681B68DA69FB681B6827
:1047800042F40062DA61FB681B68DA69FB681B6847
:1047900022F48062DA61FB681B68D969BB681B6917
:1047A0001A02FB681B680A43DA6102E00123FB7509
:1047B00000BFFB68002283F83C20FB7D18461837B9
:1047C000BD4680BD80B584B000AF786039600023FD
:1047D000FB737B6893F83C30012B01D10223B4E0DA
:1047E0007B68012283F83C207B68022283F83D200D
:1047F0007B681B689B68BB60BB6823F07703BB606A
:10480000BB6823F47F43BB607B681B68BA689A600F
:104810003B681B68B3F5005F3ED0B3F5005F00F264
:104820008780B3F5805F00F08680B3F5805F7FD826
:10483000702B1AD0702B7BD8602B50D0602B77D880
:10484000502B3CD0502B73D8402B58D0402B6FD8D6
:10485000302B64D0302B6BD8202B60D0202B67D826
:10486000002B5CD0102B5AD062E07B6818683B6844
:1048700099683B685A683B68DB6800F0FCFA7B6823
:104880001B689B68BB60BB6843F07703BB607B68B9
:104890001B68BA689A604FE07B6818683B68996843
:1048A0003B685A683B68DB6800F0E5FA7B681B6888
:1048B0009A687B681B6842F480429A603CE07B689F
:1048C00018683B6859683B68DB681A4600F05CFA78
:1048D0007B681B685021184600F0B3FA2CE07B6817
:1048E00018683B6859683B68DB681A4600F07AFA3A
:1048F0007B681B686021184600F0A3FA1CE07B6807
:1049000018683B6859683B68DB681A4600F03CFA57
:104910007B681B684021184600F093FA0CE07B6826
:104920001A683B681B681946104600F08AFA03E0D3
:104930000123FB7300E000BF7B68012283F83D2068
:104940007B68002283F83C20FB7B18461037BD466D
:1049500080BD80B483B000AF786000BF0C37BD4627
:1049600080BC704780B483B000AF786000BF0C3764
:10497000BD4680BC704780B483B000AF786000BF94
:104980000C37BD4680BC704780B483B000AF786000
:1049900000BF0C37BD4680BC7047000080B485B0B6
:1049A00000AF786039607B681B68FB607B682F4ACA
:1049B00093420BD07B68B3F1804F07D07B682C4AC1
:1049C000934203D07B682B4A934208D1FB6823F0C3
:1049D0007003FB603B685B68FA681343FB607B68AD
:1049E000224A93420BD07B68B3F1804F07D07B689B
:1049F0001F4A934203D07B681E4A934208D1FB684A
:104A000023F44073FB603B68DB68FA681343FB6088
:104A1000FB6823F080023B685B691343FB607B68A3
:104A2000FA681A603B689A687B68DA623B681A68C1
:104A30007B689A627B680D4A934203D13B681A698E
:104A40007B681A637B6801225A617B681B6903F0EB
:104A50000103002B05D07B681B6923F001027B68F2
:104A60001A6100BF1437BD4680BC7047002C01405E
:104A7000000400400008004080B487B000AF7860B8
:104A800039607B681B6A7B617B681B6A23F00102CB
:104A90007B681A627B685B683B617B689B69FB6033
:104AA000FB6823F07003FB60FB6823F00303FB60EB
:104AB0003B681B68FA681343FB607B6923F00203C1
:104AC0007B613B689B687A6913437B617B681C4A06
:104AD00093420CD17B6923F008037B613B68DB6860
:104AE0007A6913437B617B6923F004037B617B68F4
:104AF000134A934211D13B6923F480733B613B69B4
:104B000023F400733B613B685B693A6913433B6183
:104B10003B689B693A6913433B617B683A695A6019
:104B20007B68FA689A613B685A687B685A637B685D
:104B30007A691A6200BF1C37BD4680BC704700BF4F
:104B4000002C014080B487B000AF786039607B688A
:104B50001B6A7B617B681B6A23F010027B681A6208
:104B60007B685B683B617B689B69FB60FB6823F447
:104B7000E043FB60FB6823F44073FB603B681B6809
:104B80001B02FA681343FB607B6923F020037B61FF
:104B90003B689B681B017A6913437B617B681D4AF4
:104BA00093420DD17B6923F080037B613B68DB6816
:104BB0001B017A6913437B617B6923F040037B61AE
:104BC0007B68144A934213D13B6923F480633B61B1
:104BD0003B6923F400633B613B685B699B003A6976
:104BE00013433B613B689B699B003A6913433B61FC
:104BF0007B683A695A607B68FA689A613B685A68D0
:104C00007B689A637B687A691A6200BF1C37BD466D
:104C100080BC7047002C014080B487B000AF786042
:104C200039607B681B6A7B617B681B6A23F4807236
:104C30007B681A627B685B683B617B68DB69FB6051
:104C4000FB6823F07003FB60FB6823F00303FB6049
:104C50003B681B68FA681343FB607B6923F40073AD
:104C60007B613B689B681B027A6913437B617B68AD
:104C70001D4A93420DD17B6923F400637B613B683D
:104C8000DB681B027A6913437B617B6923F48063D1
:104C90007B617B68144A934213D13B6923F48053B0
:104CA0003B613B6923F400533B613B685B691B013B
:104CB0003A6913433B613B689B691B013A691343A3
:104CC0003B617B683A695A607B68FA68DA613B68E5
:104CD0005A687B68DA637B687A691A6200BF1C379E
:104CE000BD4680BC704700BF002C014080B487B037
:104CF00000AF786039607B681B6A3B617B681B6A28
:104D000023F480527B681A627B685B687B617B68F6
:104D1000DB69FB60FB6823F4E043FB60FB6823F482
:104D20004073FB603B681B681B02FA681343FB601F
:104D30003B6923F400533B613B689B681B033A6962
:104D400013433B617B680F4A934209D17B6923F48B
:104D500080437B613B685B699B017A6913437B619C
:104D60007B687A695A607B68FA68DA613B685A68DE
:104D70007B681A647B683A691A6200BF1C37BD46BB
:104D800080BC7047002C014080B487B000AFF86051
:104D9000B9607A60FB681B6A7B61FB681B6A23F061
:104DA0000102FB681A62FB689B693B613B6923F067
:104DB000F0033B617B681B013A6913433B617B69EC
:104DC00023F00A037B617A69BB6813437B61FB684C
:104DD0003A699A61FB687A691A6200BF1C37BD465E
:104DE00080BC704780B487B000AFF860B9607A606B
:104DF000FB681B6A7B61FB681B6A23F01002FB687F
:104E00001A62FB689B693B613B6923F470433B6119
:104E10007B681B033A6913433B617B6923F0A00362
:104E20007B61BB681B017A6913437B61FB683A694C
:104E30009A61FB687A691A6200BF1C37BD4680BC64
:104E4000704780B485B000AF786039607B689B683C
:104E5000FB60FB6823F07003FB603A68FB68134358
:104E600043F00703FB607B68FA689A6000BF143761
:104E7000BD4680BC704780B487B000AFF860B960B1
:104E80007A603B60FB689B687B617B6923F47F43AE
:104E90007B613B681A027B681A43BB6813437A69DB
:104EA00013437B61FB687A699A6000BF1C37BD467B
:104EB00080BC704780B487B000AFF860B9607A609A
:104EC000BB6803F01F03012202FA03F37B61FB6856
:104ED0001A6A7B69DB431A40FB681A62FB681A6A2C
:104EE000BB6803F01F03796801FA03F31A43FB68F8
:104EF0001A6200BF1C37BD4680BC704780B485B0C5
:104F000000AF786039607B6893F83C30012B01D1A9
:104F1000022346E07B68012283F83C207B68022262
:104F200083F83D207B681B685B68FB607B681B68BF
:104F30009B68BB60FB6823F07003FB603B681B68E9
:104F4000FA681343FB607B681B68FA685A607B68E9
:104F50001B68164A93420ED07B681B68B3F1804FE2
:104F600009D07B681B68124A934204D07B681B6897
:104F7000104A93420CD1BB6823F08003BB603B68AE
:104F80005B68BA681343BB607B681B68BA689A6049
:104F90007B68012283F83D207B68002283F83C2057
:104FA000002318461437BD4680BC7047002C0140D2
:104FB000000400400008004080B485B000AF786075
:104FC00039600023FB607B6893F83C30012B01D1F2
:104FD00002233DE07B68012283F83C20FB6823F03C
:104FE000FF023B68DB681343FB60FB6823F44072FD
:104FF0003B689B681343FB60FB6823F480623B685B
:105000005B681343FB60FB6823F400623B681B682A
:105010001343FB60FB6823F480523B681B69134316
:10502000FB60FB6823F400523B685B691343FB6041
:10503000FB6823F480423B68DB691343FB607B68B9
:105040001B68FA685A647B68002283F83C200023BE
:1050500018461437BD4680BC704780B483B000AF9B
:10506000786000BF0C37BD4680BC704780B483B009
:1050700000AF786000BF0C37BD4680BC704780B57C
:1050800082B000AF78607B68002B01D1012342E041
:105090007B6893F84130DBB2002B06D17B6800229D
:1050A00083F840207868FDF7D1FA7B68242283F8E2
:1050B00041207B681B68DA687B681B6822F4005219
:1050C000DA60786800F030FF7B681B681A697B68DB
:1050D0001B6822F490421A617B681B685A697B68DE
:1050E0001B6822F02A025A617B681B68DA687B68B9
:1050F0001B6842F40052DA607B6800225A647B68C5
:10510000202283F841207B68202283F842207B689C
:1051100000225A63002318460837BD4680BD0000B0
:1051200080B58CB000AFF860B9601346FB80FB68B7
:1051300093F84130DBB2202B56D1BB68002B02D054
:10514000FB88002B01D101234FE0BA68FB681A628B
:10515000FB68FA889A84FB68FA88DA84FB68002284
:105160005A64FB68212283F84120FB689B6B214A2B
:105170009A62FB689B6B204ADA62FB689B6B1F4A52
:105180001A63FB689B6B00225A6307F10803FB62FA
:10519000FB68986BFB6A1968FB681B6804331A4646
:1051A000FB88FDF7BDFEFB681B686FF040021A60CC
:1051B000FB681B681433BB61BB6953E8003F7B612C
:1051C0007B6943F08003BB62FB681B681433BA6AD7
:1051D0007A623B62396A7A6A41E80023FB61FB69C3
:1051E000002BE5D1002300E0022318463037BD46EE
:1051F00080BD00BFBD57000857580008DB590008A4
:1052000080B584B000AFF860B9601346FB80FB68DE
:1052100093F84230DBB2202B12D1BB68002B02D0B6
:10522000FB88002B01D101230BE0FB6800221A63ED
:10523000FB881A46B968F86800F01AFC034600E0DB
:10524000022318461037BD4680BD000080B5BAB0B5
:1052500000AF78607B681B681B68C7F8E4307B6828
:105260001B68DB68C7F8E0307B681B685B69C7F8C0
:10527000DC300023C7F8D8300023C7F8D430D7F883
:10528000E43003F00F03C7F8D830D7F8D830002B3C
:105290000FD1D7F8E43003F02003002B09D0D7F862
:1052A000E03003F02003002B03D0786800F07EFD8F
:1052B0005BE2D7F8D830002B00F0DE80D7F8DC3086
:1052C00003F00103002B06D1D7F8E03003F490730C
:1052D000002B00F0D180D7F8E43003F00103002B5D
:1052E0000BD0D7F8E03003F48073002B05D07B6837
:1052F0005B6C43F001027B685A64D7F8E43003F03A
:105300000403002B0BD0D7F8DC3003F00103002B93
:1053100005D07B685B6C43F002027B685A64D7F867
:10532000E43003F00203002B0BD0D7F8DC3003F09D
:105330000103002B05D07B685B6C43F004027B68A3
:105340005A64D7F8E43003F00803002B11D0D7F8E3
:10535000E03003F02003002B05D1D7F8DC3003F058
:105360000103002B05D07B685B6C43F008027B686F
:105370005A647B685B6C002B00F0F281D7F8E43054
:1053800003F02003002B08D0D7F8E03003F020030F
:10539000002B02D0786800F009FD7B681B685B6910
:1053A00003F04003002B14BF01230023DBB2C7F836
:1053B000D4307B685B6C03F00803002B03D1D7F873
:1053C000D430002B4FD0786800F013FC7B681B684A
:1053D0005B6903F04003002B41D07B681B681433EA
:1053E000C7F89C30D7F89C3053E8003FC7F8983096
:1053F000D7F8983023F04003C7F8D0307B681B689B
:105400001433D7F8D020C7F8A820C7F8A430D7F8AD
:10541000A410D7F8A82041E80023C7F8A030D7F897
:10542000A030002BD9D17B68DB6B002B13D07B68BD
:10543000DB6B7E4A5A637B68DB6B1846FDF70CFE1C
:105440000346002B16D07B68DB6B5B6B7A68D26BF4
:10545000104698470EE0786800F09CF90AE07868FA
:1054600000F098F906E0786800F094F97B68002273
:105470005A6475E100BF73E17B681B6B012B40F040
:105480004F81D7F8E43003F01003002B00F048817F
:10549000D7F8E03003F01003002B00F04181002327
:1054A000BB607B681B681B68BB607B681B685B68B4
:1054B000BB60BB687B681B685B6903F04003002B23
:1054C00000F0B6807B68DB6B1B685B68A7F8BE30BA
:1054D000B7F8BE30002B00F045817B689B8DB7F894
:1054E000BE209A4280F03E817B68B7F8BE20DA8504
:1054F0007B68DB6B9B69202B00F088807B681B68D6
:105500000C33C7F88830D7F8883053E8003FC7F825
:105510008430D7F8843023F48073C7F8B8307B68C0
:105520001B680C33D7F8B820C7F89420C7F8903020
:10553000D7F89010D7F8942041E80023C7F88C30B2
:10554000D7F88C30002BD9D17B681B6814337B676C
:105550007B6F53E8003F3B673B6F23F00103C7F8C5
:10556000B4307B681B681433D7F8B420C7F88020A8
:10557000FB67F96FD7F8802041E80023BB67BB6F5A
:10558000002BE1D17B681B6814333B663B6E53E80C
:10559000003FFB65FB6D23F04003C7F8B0307B682C
:1055A0001B681433D7F8B020FA66BB66B96EFA6E82
:1055B00041E800237B667B6E002BE3D17B682022D1
:1055C00083F842207B6800221A637B681B680C33D7
:1055D000FB64FB6C53E8003FBB64BB6C23F010031F
:1055E000C7F8AC307B681B680C33D7F8AC20BA65C1
:1055F0007B65796DBA6D41E800233B653B6D002BFF
:10560000E3D17B68DB6B1846FDF7EAFC7B6802227E
:105610005A637B689A8D7B68DB8D9BB2D31A9BB2F1
:105620001946786800F0BFF89CE000BFB75C00083E
:105630007B689A8D7B68DB8D9BB2D31AA7F8CE303E
:105640007B68DB8D9BB2002B00F08E80B7F8CE30EC
:10565000002B00F089807B681B680C33BB63BB6B3D
:1056600053E8003F7B637B6B23F49073C7F8C8302B
:105670007B681B680C33D7F8C8207A643B64396CAC
:105680007A6C41E80023FB63FB6B002BE3D17B6862
:105690001B6814337B627B6A53E8003F3B623B6AC2
:1056A00023F00103C7F8C4307B681B681433D7F8B4
:1056B000C4203A63FB62F96A3A6B41E80023BB629B
:1056C000BB6A002BE3D17B68202283F842207B68F1
:1056D00000221A637B681B680C333B613B6953E80B
:1056E000003FFB60FB6823F01003C7F8C0307B6805
:1056F0001B680C33D7F8C020FA61BB61B969FA693D
:1057000041E800237B617B69002BE3D17B680222A7
:105710005A63B7F8CE301946786800F044F823E0B1
:10572000D7F8E43003F08003002B09D0D7F8E0303D
:1057300003F08003002B03D0786800F0D0FA14E067
:10574000D7F8E43003F04003002B0ED0D7F8E03058
:1057500003F04003002B08D0786800F00FFB04E052
:1057600000BF02E000BF00E000BFE837BD4680BDDB
:1057700080B483B000AF786000BF0C37BD4680BCFA
:10578000704780B483B000AF786000BF0C37BD466F
:1057900080BC704780B483B000AF786000BF0C3726
:1057A000BD4680BC704780B483B000AF78600B46C4
:1057B0007B8000BF0C37BD4680BC704780B590B081
:1057C00000AF78607B685B6AFB637B681B681B6863
:1057D00003F02003002B37D1FB6B0022DA84FB6B34
:1057E0001B6814337B627B6A53E8003F3B623B6A71
:1057F00023F08003BB63FB6B1B681433BA6B3A6303
:10580000FB62F96A3A6B41E80023BB62BB6A002B7A
:10581000E5D1FB6B1B680C333B613B6953E8003FF0
:10582000FB60FB6843F040037B63FB6B1B680C333E
:105830007A6BFA61BB61B969FA6941E800237B615F
:105840007B69002BE5D102E0F86BFFF791FF00BF09
:105850004037BD4680BD80B584B000AF78607B68BE
:105860005B6AFB60F868FFF78CFF00BF1037BD462E
:1058700080BD80B59CB000AF78607B685B6AFB66DA
:105880007B681B681B6803F02003002B72D1FB6E42
:105890000022DA85FB6E1B680C33FB64FB6C53E85B
:1058A000003FBB64BB6C23F48073BB66FB6E1B685C
:1058B0000C33BA6EBA657B65796DBA6D41E8002329
:1058C0003B653B6D002BE5D1FB6E1B681433BB635E
:1058D000BB6B53E8003F7B637B6B23F001037B666C
:1058E000FB6E1B6814337A6E7A643B64396C7A6C95
:1058F00041E80023FB63FB6B002BE5D1FB6E1B68CB
:1059000014337B627B6A53E8003F3B623B6A23F0BF
:1059100040033B66FB6E1B6814333A6E3A63FB62CE
:10592000F96A3A6B41E80023BB62BB6A002BE5D100
:10593000FB6E202283F84220FB6E1B6B012B19D1DA
:10594000FB6E1B680C333B613B6953E8003FFB6017
:10595000FB6823F01003FB65FB6E1B680C33FA6DCC
:10596000FA61BB61B969FA6941E800237B617B692F
:10597000002BE5D1FB6E00225A63FB6E1B6B012BE3
:1059800006D1FB6E9B8D1946F86EFFF70CFF02E007
:10599000F86EFCF7D1F900BF7037BD4680BD80B509
:1059A00084B000AF78607B685B6AFB60FB680122B3
:1059B0005A63FB681B6B012B08D1FB689B8D5B084E
:1059C0009BB21946F868FFF7EEFE02E0F868FCF7B4
:1059D0009BF900BF1037BD4680BD80B584B000AFD5
:1059E00078600023FB607B685B6ABB60BB681B68F8
:1059F0005B6903F08003002B14BF01230023DBB29B
:105A0000FB60BB6893F84130DBB2212B08D1FB6807
:105A1000002B05D0BB680022DA84B86800F0C2F819
:105A2000BB681B685B6903F04003002B14BF0123B4
:105A30000023DBB2FB60BB6893F84230DBB2222B61
:105A400008D1FB68002B05D0BB680022DA85B86856
:105A500000F0CFF8BB685B6C43F01002BB685A647F
:105A6000B868FFF797FE00BF1037BD4680BD000045
:105A700080B598B000AFF860B9601346FB80BA6893
:105A8000FB689A62FB68FA889A85FB6800225A6470
:105A9000FB68222283F84220FB68DB6B3E4A9A6255
:105AA000FB68DB6B3D4ADA62FB68DB6B3C4A1A63DE
:105AB000FB68DB6B00225A6307F10803FB65FB6898
:105AC000D86BFB681B6804331946FB6D1A68FB88AA
:105AD000FDF726FA00233B61FB681B681B683B61EE
